:020000040000FA
:1000000060020020C1000000C9000000CB00000019
:10001000FFFFFFFFFFFFFFFFFFFFFFFFFFFFFFFFF0
:10002000FFFFFFFFFFFFFFFFFFFFFFFFCD0000000F
:10003000FFFFFFFFFFFFFFFFCF000000D100000028
:10004000D3000000D3000000D3000000D300000064
:10005000D3000000D3000000D3000000D300000054
:10006000D3000000FFFFFFFFD3000000D30000001B
:10007000D3000000D3000000D3000000FFFFFFFF0B
:10008000FFFFFFFFD3000000D3000000D3000000FB
:10009000D3000000D3000000D3000000D300000014
:1000A000D3000000D3000000D3000000D300000004
:1000B000D3000000D3000000D3000000D3000000F4
:1000C0000748804707480047FEE7FEE7FEE7FEE7F0
:1000D000FEE7FEE704480549034A054B7047000068
:1000E000E9010000F500000060000020600200202F
:1000F0006000002000F002F800F030F80CA030C8DA
:10010000083824182D18A246671EAB4654465D4693
:10011000AC4201D100F022F87E460F3E0FCCB6462D
:100120000126334200D0FB1AA246AB4633431847A0
:100130005002000060020000002300240025002679
:10014000103A01D378C1FBD8520700D330C100D593
:100150000B6070471FB51FBD10B510BD00F010F843
:100160001146FFF7F7FF00F0EDF800F028F803B4B0
:10017000FFF7F2FF03BC00F02FF87047704770479D
:10018000754600F025F8AE46050069465346C0089E
:10019000C000854618B020B5FFF79CFF60BC002763
:1001A0004908B6460026C0C5C0C5C0C5C0C5C0C543
:1001B000C0C5C0C5C0C5403D49008D46704710B59B
:1001C0000446C046C0462046FFF7D1FF10BD0000E0
:1001D000004870470000002001491820ABBEFEE730
:1001E0002600020070470000F0B54B480169002965
:1001F00008D14169002905D18169002902D1C0696E
:1002000000287DD0454B186B1025284318634548BE
:1002100043490161816805220905090D1203891806
:10022000816041494160186BA84318633F49012030
:100230000860186B4026304318633D4881682729C1
:10024000FCD158680121C902084358609868C00869
:10025000C007FBD05868C008C000C01C5860586B6D
:100260004007400F0328FAD1324C2068C008C00074
:10027000401C20600020186258686715B843586019
:100280001868A11508431860586889000843586029
:1002900098688008C007FBD02748082281689143EE
:1002A00081608168C908C907F8D1186BB043186329
:1002B0001968FF200130814319600320000698610E
:1002C00058683843586098684008C007FBD02068D9
:1002D000C008C000801C2060002018625868C00858
:1002E000C000401C5860586B4007400F0128FAD1ED
:1002F000206828432060206801210903084300E0AA
:1003000001E02060F0BDBFF34F8F0D490B48C8607E
:10031000BFF34F8FFEE70000000308400080084055
:10032000CA35000000800640D0A7000000830840C6
:1003300000A106400002084000A006400400FA05A3
:1003400000ED00E00B48416A012292041143416232
:1003500009480168121111430160036851000B4301
:100360000360064B0362836A13438362826A0A4313
:100370008262FEE70080084000400B40FFFF000063
:10038000900300000000002060020000380100001F
:04000005000000C136
:00000001FF
